:100000000C9434000C9451000C9451000C94510049
:100010000C9451000C9451000C9451000C9451001C
:100020000C9451000C9451000C9451000C9453000A
:100030000C9451000C9451000C9451000C945100FC
:100040000C9451000C9451000C9451000C945100EC
:100050000C9451000C9451000C9451000C945100DC
:100060000C9451000C94510011241FBECFEFD8E026
:10007000DEBFCDBF11E0A0E0B1E0EAE2FCE002C0EB
:1000800005900D92A231B107D9F721E0A2E1B1E0CC
:1000900001C01D92A631B207E1F70E9421040C9421
:1000A00013060C9400001F921FB61F9211248F9309
:1000B0009F93AF93BF938091120190911301A091F0
:1000C0001401B09115010196A11DB11D809312017B
:1000D00090931301A0931401B0931501BF91AF91B8
:1000E0009F918F911F901FBE1F901895E1E8F0E03F
:1000F00080818B6080838AEF90E090938900809369
:100100008800EFE6F0E0808182608083089560914E
:1001100012017091130180911401909115010895BD
:10012000289A85E08A95F1F70000289808955E984E
:1001300082958F7080FF06C05A9A5B9A5C985D9892
:100140000C9490005A98F9CFCF92DF92EF92FF92E1
:10015000CF93C82FC82ED12CE12CF12CD701C6018A
:1001600064E0B695A795979587956A95D1F78170C4
:10017000811509F44EC05A9AD701C60155E0B695CB
:10018000A795979587955A95D1F78170811509F4B0
:1001900042C05B9AD701C60146E0B695A7959795F0
:1001A00087954A95D1F781708115B9F15C9AC7FF9F
:1001B00036C05D9A0E949000C0FF33C05A9AD701A2
:1001C000C601B695A795979587958170811559F1C8
:1001D0005B9AD701C60122E0B695A79597958795BA
:1001E0002A95D1F78170811501F15C9A83E0F6942C
:1001F000E794D794C7948A95D1F78C2D8170811597
:10020000B1F05D9ACF91FF90EF90DF90CF900C947A
:1002100090005A98B1CF5B98BDCF5C98C8CF5D98DD
:10022000C9CF5A98CCCF5B98D4CF5C98DFCF5D987C
:10023000E9CFCF9352985398549855985E985F9A07
:10024000289A85E08A95F1F70000C9B128980E94A4
:100250009000C5FDF5CF529A539A549A559A5F98DB
:10026000CF910895CF93C82F0E9419015E988C2FCB
:10027000CF910C94A400529A539A549A559A569A34
:10028000579A209A5A985B985C985D985E985F9808
:1002900028982FEF89EF90E0215080409040E1F7BF
:1002A00000C0000080E30E9497008FE39CE9019763
:1002B000F1F700C0000080E30E9497008FE99FE003
:1002C0000197F1F700C0000080E30E9497008FE9DA
:1002D0009FE00197F1F700C0000080E20E949700C4
:1002E00088E20E9432018CE00E94320186E00E9486
:1002F000320181E00C943201CF93C82F0E94190182
:100300005E9A8C2FCF910C94A40081E00C94320162
:10031000982F803158F4623048F4862F8295880FE8
:10032000880F807C892B80680C9432010895CF93CC
:10033000682F80E00E948801C1E180E20E947C0178
:10034000CA95D9F7CF9108950E94190152985398F0
:10035000549855985E985F9A289A85E08A95F1F7A7
:10036000000059B189B149B12898289A95E09A9529
:10037000F1F7000069B139B129B199B183FB882740
:1003800080F98295880F807E52FB552750F952954F
:10039000507F852B62FB552750F9852B4295417084
:1003A0004295440F440F407C842B33FB332730F9B4
:1003B000330F832B22952170220F220F822B95FB66
:1003C000992790F9990F990F990F892B2898529A8C
:1003D000539A549A559A5F9880341CF0805491E057
:1003E000089590E00895EF92FF920F931F93CF939B
:1003F000DF937C01C62F6830F8F40E94A401182F07
:10040000092F8C2F880F880F880F80640E9432017B
:10041000E701C70108967C0189910E947C01CE15F5
:10042000DF05D1F7602F812FDF91CF911F910F91C1
:10043000FF90EF900C948801DF91CF911F910F9165
:10044000FF90EF900895EF92FF920F931F93CF9339
:10045000DF937C01C62F683018F50E94A401182F85
:10046000092F8C2F880F880F880F80640E9432011B
:10047000E701C70108967C01E9910E2E000CFF0BE5
:1004800084910E947C01CE15DF05B1F7602F812F8A
:10049000DF91CF911F910F91FF90EF900C94880105
:1004A000DF91CF911F910F91FF90EF9008950E94DF
:1004B000A40108950E94A401892F08950C947C0141
:1004C000CF93DF93EC018991811103C0DF91CF912C
:1004D00008950E947C01F7CFCF93DF93EC01FE01DA
:1004E00084912196811103C0DF91CF9108950E94DC
:1004F0007C01F5CFCF92DF92EF92FF92CF93DF9303
:10050000CDB7DEB72C970FB6F894DEBF0FBECDBFC8
:10051000462F572FBC01411551056105710579F42E
:1005200080E32C960FB6F894DEBF0FBECDBFDF91EF
:10053000CF91FF90EF90DF90CF900C947C0141150C
:100540005105610520E8720709F4B7C0CE01019694
:100550002CE0FC0111922A95E9F720E3298330E091
:1005600077FF08C070956095509541955F4F6F4F2C
:100570007F4F31E020E34130FAEC5F07FAE96F0783
:10058000FBE37F07B4F06A017B012AECD21A2AE967
:10059000E20A2BE3F20AE1E0CE16EAECDE06EAE933
:1005A000EE06EBE3FE060CF495C05459654377471D
:1005B00022E32A8320E3E1E0E20F4115F1EE5F0739
:1005C000F5EF6F07F5E07F070CF088C02B8320E381
:1005D000E1E0E20F4038F6E95F07F8E96F077105DF
:1005E0000CF081C02C8320E3E1E0E20F4034F2E420
:1005F0005F07FFE06F0771050CF07BC02D8320E3E0
:10060000E1E0E20F403AF6E85F07F1E06F077105BD
:100610000CF075C02E8320E3E1E0E20F4031F7E2F9
:100620005F07610571050CF070C02F8320E3E1E0E6
:10063000E20F483EF3E05F07610571050CF06BC007
:10064000288720E3E1E0E20F44365105610571059A
:100650000CF067C0298720E3E1E0E20F4A30510542
:10066000610571050CF063C02A87405D4B8720E06F
:10067000FC01E20FF11D4081403309F45EC03115E9
:1006800031F02150FC01E20FF11D3DE230834AE0E0
:10069000421BF12C30E0DC01AF0DB11DBD01620F3A
:1006A000731FFB0150815C93F3944F15A0F7FC017D
:1006B000EF0DF11D10820E9460022C960FB6F89487
:1006C000DEBF0FBECDBFDF91CF91FF90EF90DF90E7
:1006D000CF900895B701A60121E36BCF515E654F1E
:1006E00075402E2F68CF40585649684971092E2F02
:1006F0006FCF405452446F4071092E2F75CF405A2E
:100700005648614071092E2F7BCF405157426109F5
:1007100071092E2F81CF485E5340610971092E2F38
:1007200086CF44565109610971092E2F8BCF4A504B
:100730005109610971092E2F8FCF2F5F99CFCF9269
:10074000DF92EF92FF920F931F93CF93DF936B0192
:100750007C018901D42FC52F20E030E0A901C70119
:10076000B6010E94B404811111C080E30E947C0193
:100770008EE20E947C0180E3DF91CF911F910F9167
:10078000FF90EF90DF90CF900C947C0120E030E060
:1007900040E05FECC701B6010E94A10587FD48C09B
:1007A00020E030E040E05FE4C701B6010E94B404FD
:1007B00087FF3EC020E030E0A901C701B6010E94DA
:1007C000B40487FF07C0F7FAF094F7F8F0948DE2CD
:1007D0000E947C01C701B6010E94B9040E947A02FE
:1007E0008EE20E947C01C701B6010E94C0040E94F3
:1007F000EF049B01AC01C701B6010E9447046B01E5
:100800007C01B8018D2F9C2F0E94EF049B01AC014D
:10081000B601C7010E94A6050E94B904DF91CF91DD
:100820001F910F91FF90EF90DF90CF900C947A0280
:10083000DF91CF911F910F91FF90EF90DF90CF90BC
:1008400008950E943B010E9476000E9485011C9938
:100850001CC0789460E080E00E94880180E091E014
:100860000E94600261E080E00E94880160911201B4
:100870007091130180911401909115010E947A02E8
:100880008EE091E00E946002E2CFF894E0CF5058F1
:10089000BB27AA270E945F040C9467050E94590594
:1008A00038F00E94600520F039F49F3F19F426F4D7
:1008B0000C9456050EF4E095E7FB0C945005E92FD7
:1008C0000E94780558F3BA176207730784079507E3
:1008D00020F079F4A6F50C949A050EF4E0950B2E11
:1008E000BA2FA02D0B01B90190010C01CA01A00182
:1008F0001124FF27591B99F0593F50F4503E68F1DD
:100900001A16F040A22F232F342F4427585FF3CF1D
:10091000469537952795A795F0405395C9F77EF4EE
:100920001F16BA0B620B730B840BBAF09150A1F037
:10093000FF0FBB1F661F771F881FC2F70EC0BA0FBD
:10094000621F731F841F48F4879577956795B79545
:10095000F7959E3F08F0B0CF9395880F08F0992740
:10096000EE0F9795879508950E942C0508F481E075
:1009700008950E94C0046894B1110C949B050895D9
:100980000E94800588F09F5798F0B92F9927B7519A
:10099000B0F0E1F0660F771F881F991F1AF0BA9523
:1009A000C9F714C0B13091F00E949A05B1E00895E2
:1009B0000C949A05672F782F8827B85F39F0B93FD4
:1009C000CCF3869577956795B395D9F73EF49095D6
:1009D0008095709561957F4F8F4F9F4F0895E89454
:1009E00009C097FB3EF490958095709561957F4F77
:1009F0008F4F9F4F9923A9F0F92F96E9BB27939525
:100A0000F695879577956795B795F111F8CFFAF434
:100A1000BB0F11F460FF1BC06F5F7F4F8F4F9F4F65
:100A200016C0882311F096E911C0772321F09EE8C3
:100A3000872F762F05C0662371F096E8862F70E029
:100A400060E02AF09A95660F771F881FDAF7880F03
:100A50009695879597F90895990F0008550FAA0B59
:100A6000E0E8FEEF16161706E807F907C0F01216C1
:100A70001306E407F50798F0621B730B840B950BC4
:100A800039F40A2661F0232B242B252B21F4089519
:100A90000A2609F4A140A6958FEF811D811D0895B6
:100AA00097F99F6780E870E060E008959FEF80EC21
:100AB000089500240A9416161706180609060895C4
:100AC00000240A9412161306140605060895092E2A
:100AD0000394000C11F4882352F0BB0F40F4BF2B99
:100AE00011F460FF04C06F5F7F4F8F4F9F4F0895D9
:100AF00057FD9058440F551F59F05F3F71F04795CF
:100B0000880F97FB991F61F09F3F79F087950895B3
:100B1000121613061406551FF2CF4695F1DF08C0D2
:100B2000161617061806991FF1CF869571056105EF
:100B300008940895E894BB2766277727CB0197F997
:100B400008950E942C0508F48FEF08950E94B905BE
:100B50000C9467050E94590538F00E94600520F04A
:100B6000952311F00C9450050C94560511240C9407
:100B70009B050E94780570F3959FC1F3950F50E097
:100B8000551F629FF001729FBB27F00DB11D639F3F
:100B9000AA27F00DB11DAA1F649F6627B00DA11DE5
:100BA000661F829F2227B00DA11D621F739FB00D8B
:100BB000A11D621F839FA00D611D221F749F3327FB
:100BC000A00D611D231F849F600D211D822F762F94
:100BD0006A2F11249F5750409AF0F1F088234AF071
:100BE000EE0FFF1FBB1F661F771F881F91505040DD
:100BF000A9F79E3F510580F00C9450050C949B057D
:100C00005F3FE4F3983ED4F3869577956795B79563
:100C1000F795E7959F5FC1F7FE2B880F911D96957D
:0A0C2000879597F90895F894FFCF27
:100C2A00446574656374656420466F723A00206D8A
:020C3A00730045
:00000001FF
